{
  "contractName": "StakePool",
  "abi": [
    {
      "inputs": [
        {
          "internalType": "contract MdtToken",
          "name": "_mdtToken",
          "type": "address"
        }
      ],
      "stateMutability": "nonpayable",
      "type": "constructor"
    },
    {
      "inputs": [
        {
          "internalType": "address",
          "name": "",
          "type": "address"
        }
      ],
      "name": "hasStaked",
      "outputs": [
        {
          "internalType": "bool",
          "name": "",
          "type": "bool"
        }
      ],
      "stateMutability": "view",
      "type": "function",
      "constant": true
    },
    {
      "inputs": [
        {
          "internalType": "address",
          "name": "",
          "type": "address"
        }
      ],
      "name": "isStaking",
      "outputs": [
        {
          "internalType": "bool",
          "name": "",
          "type": "bool"
        }
      ],
      "stateMutability": "view",
      "type": "function",
      "constant": true
    },
    {
      "inputs": [],
      "name": "mdtToken",
      "outputs": [
        {
          "internalType": "contract MdtToken",
          "name": "",
          "type": "address"
        }
      ],
      "stateMutability": "view",
      "type": "function",
      "constant": true
    },
    {
      "inputs": [],
      "name": "name",
      "outputs": [
        {
          "internalType": "string",
          "name": "",
          "type": "string"
        }
      ],
      "stateMutability": "view",
      "type": "function",
      "constant": true
    },
    {
      "inputs": [],
      "name": "owner",
      "outputs": [
        {
          "internalType": "address",
          "name": "",
          "type": "address"
        }
      ],
      "stateMutability": "view",
      "type": "function",
      "constant": true
    },
    {
      "inputs": [
        {
          "internalType": "address",
          "name": "",
          "type": "address"
        }
      ],
      "name": "stakeTime",
      "outputs": [
        {
          "internalType": "uint256",
          "name": "",
          "type": "uint256"
        }
      ],
      "stateMutability": "view",
      "type": "function",
      "constant": true
    },
    {
      "inputs": [
        {
          "internalType": "uint256",
          "name": "",
          "type": "uint256"
        }
      ],
      "name": "stakers",
      "outputs": [
        {
          "internalType": "address",
          "name": "",
          "type": "address"
        }
      ],
      "stateMutability": "view",
      "type": "function",
      "constant": true
    },
    {
      "inputs": [
        {
          "internalType": "address",
          "name": "",
          "type": "address"
        }
      ],
      "name": "stakingBalance",
      "outputs": [
        {
          "internalType": "uint256",
          "name": "",
          "type": "uint256"
        }
      ],
      "stateMutability": "view",
      "type": "function",
      "constant": true
    },
    {
      "inputs": [
        {
          "internalType": "address",
          "name": "_caller",
          "type": "address"
        }
      ],
      "name": "getBal",
      "outputs": [
        {
          "internalType": "uint256",
          "name": "",
          "type": "uint256"
        }
      ],
      "stateMutability": "view",
      "type": "function",
      "constant": true
    },
    {
      "inputs": [
        {
          "internalType": "uint256",
          "name": "_amount",
          "type": "uint256"
        }
      ],
      "name": "stakeTokens",
      "outputs": [],
      "stateMutability": "nonpayable",
      "type": "function"
    },
    {
      "inputs": [
        {
          "internalType": "uint256",
          "name": "_balance",
          "type": "uint256"
        },
        {
          "internalType": "uint256",
          "name": "_rewardTime",
          "type": "uint256"
        }
      ],
      "name": "calculateRewards",
      "outputs": [
        {
          "internalType": "uint256",
          "name": "",
          "type": "uint256"
        }
      ],
      "stateMutability": "view",
      "type": "function",
      "constant": true
    },
    {
      "inputs": [],
      "name": "unstakeTokens",
      "outputs": [],
      "stateMutability": "nonpayable",
      "type": "function"
    }
  ],
  "bytecode": "0x60806040526040518060400160405280601181526020017f5374616b6520506f6f6c2053797374656d00000000000000000000000000000081525060009080519060200190620000519291906200012e565b50603c6002556004600355602960045533600560006101000a81548173ffffffffffffffffffffffffffffffffffffffff021916908373ffffffffffffffffffffffffffffffffffffffff160217905550348015620000af57600080fd5b50604051620012fc380380620012fc83398181016040526020811015620000d557600080fd5b810190808051906020019092919050505080600160006101000a81548173ffffffffffffffffffffffffffffffffffffffff021916908373ffffffffffffffffffffffffffffffffffffffff16021790555050620001e4565b828054600181600116156101000203166002900490600052602060002090601f016020900481019282620001665760008555620001b2565b82601f106200018157805160ff1916838001178555620001b2565b82800160010185558215620001b2579182015b82811115620001b157825182559160200191906001019062000194565b5b509050620001c19190620001c5565b5090565b5b80821115620001e0576000816000905550600101620001c6565b5090565b61110880620001f46000396000f3fe608060405234801561001057600080fd5b50600436106100b45760003560e01c80637547c7a3116100715780637547c7a3146102ea5780638da5cb5b14610318578063a5ce413b1461034c578063c93c8f3414610356578063f70b5c06146103b0578063fd5e6dd1146103e4576100b4565b806306fdde03146100b95780632170e4721461013c5780632fa780851461019457806345bc78ab146101ec57806348a88706146102445780636f49712b14610290575b600080fd5b6100c161043c565b6040518080602001828103825283818151815260200191508051906020019080838360005b838110156101015780820151818401526020810190506100e6565b50505050905090810190601f16801561012e5780820380516001836020036101000a031916815260200191505b509250505060405180910390f35b61017e6004803603602081101561015257600080fd5b81019080803573ffffffffffffffffffffffffffffffffffffffff1690602001909291905050506104da565b6040518082815260200191505060405180910390f35b6101d6600480360360208110156101aa57600080fd5b81019080803573ffffffffffffffffffffffffffffffffffffffff1690602001909291905050506104f2565b6040518082815260200191505060405180910390f35b61022e6004803603602081101561020257600080fd5b81019080803573ffffffffffffffffffffffffffffffffffffffff1690602001909291905050506105bf565b6040518082815260200191505060405180910390f35b61027a6004803603604081101561025a57600080fd5b8101908080359060200190929190803590602001909291905050506105d7565b6040518082815260200191505060405180910390f35b6102d2600480360360208110156102a657600080fd5b81019080803573ffffffffffffffffffffffffffffffffffffffff16906020019092919050505061061a565b60405180821515815260200191505060405180910390f35b6103166004803603602081101561030057600080fd5b810190808035906020019092919050505061063a565b005b610320610a39565b604051808273ffffffffffffffffffffffffffffffffffffffff16815260200191505060405180910390f35b610354610a5f565b005b6103986004803603602081101561036c57600080fd5b81019080803573ffffffffffffffffffffffffffffffffffffffff169060200190929190505050610e56565b60405180821515815260200191505060405180910390f35b6103b8610e76565b604051808273ffffffffffffffffffffffffffffffffffffffff16815260200191505060405180910390f35b610410600480360360208110156103fa57600080fd5b8101908080359060200190929190505050610e9c565b604051808273ffffffffffffffffffffffffffffffffffffffff16815260200191505060405180910390f35b60008054600181600116156101000203166002900480601f0160208091040260200160405190810160405280929190818152602001828054600181600116156101000203166002900480156104d25780601f106104a7576101008083540402835291602001916104d2565b820191906000526020600020905b8154815290600101906020018083116104b557829003601f168201915b505050505081565b60076020528060005260406000206000915090505481565b6000600160009054906101000a900473ffffffffffffffffffffffffffffffffffffffff1673ffffffffffffffffffffffffffffffffffffffff166370a08231836040518263ffffffff1660e01b8152600401808273ffffffffffffffffffffffffffffffffffffffff16815260200191505060206040518083038186803b15801561057d57600080fd5b505afa158015610591573d6000803e3d6000fd5b505050506040513d60208110156105a757600080fd5b81019080805190602001909291905050509050919050565b60066020528060005260406000206000915090505481565b60008083905060005b83811015610607576127106127398302816105f757fe5b04915080806001019150506105e0565b5060008482039050809250505092915050565b60096020528060005260406000206000915054906101000a900460ff1681565b600081116106b0576040517f08c379a00000000000000000000000000000000000000000000000000000000081526004018080602001828103825260138152602001807f416d6f756e742063616e6e6f742062652030210000000000000000000000000081525060200191505060405180910390fd5b600960003373ffffffffffffffffffffffffffffffffffffffff1673ffffffffffffffffffffffffffffffffffffffff16815260200190815260200160002060009054906101000a900460ff1615610753576040517f08c379a00000000000000000000000000000000000000000000000000000000081526004018080602001828103825260378152602001806110396037913960400191505060405180910390fd5b600160009054906101000a900473ffffffffffffffffffffffffffffffffffffffff1673ffffffffffffffffffffffffffffffffffffffff166323b872dd3330846040518463ffffffff1660e01b8152600401808473ffffffffffffffffffffffffffffffffffffffff1681526020018373ffffffffffffffffffffffffffffffffffffffff1681526020018281526020019350505050602060405180830381600087803b15801561080457600080fd5b505af1158015610818573d6000803e3d6000fd5b505050506040513d602081101561082e57600080fd5b81019080805190602001909291905050505080600660003373ffffffffffffffffffffffffffffffffffffffff1673ffffffffffffffffffffffffffffffffffffffff1681526020019081526020016000206000828254019250508190555042600760003373ffffffffffffffffffffffffffffffffffffffff1673ffffffffffffffffffffffffffffffffffffffff16815260200190815260200160002081905550600860003373ffffffffffffffffffffffffffffffffffffffff1673ffffffffffffffffffffffffffffffffffffffff16815260200190815260200160002060009054906101000a900460ff1661098657600a339080600181540180825580915050600190039060005260206000200160009091909190916101000a81548173ffffffffffffffffffffffffffffffffffffffff021916908373ffffffffffffffffffffffffffffffffffffffff1602179055505b6001600860003373ffffffffffffffffffffffffffffffffffffffff1673ffffffffffffffffffffffffffffffffffffffff16815260200190815260200160002060006101000a81548160ff0219169083151502179055506001600960003373ffffffffffffffffffffffffffffffffffffffff1673ffffffffffffffffffffffffffffffffffffffff16815260200190815260200160002060006101000a81548160ff02191690831515021790555050565b600560009054906101000a900473ffffffffffffffffffffffffffffffffffffffff1681565b600960003373ffffffffffffffffffffffffffffffffffffffff1673ffffffffffffffffffffffffffffffffffffffff16815260200190815260200160002060009054906101000a900460ff16610b01576040517f08c379a00000000000000000000000000000000000000000000000000000000081526004018080602001828103825260278152602001806110ac6027913960400191505060405180910390fd5b600254600760003373ffffffffffffffffffffffffffffffffffffffff1673ffffffffffffffffffffffffffffffffffffffff16815260200190815260200160002054014211610b9c576040517f08c379a000000000000000000000000000000000000000000000000000000000815260040180806020018281038252603c815260200180611070603c913960400191505060405180910390fd5b6000600660003373ffffffffffffffffffffffffffffffffffffffff1673ffffffffffffffffffffffffffffffffffffffff16815260200190815260200160002054905060008111610c56576040517f08c379a000000000000000000000000000000000000000000000000000000000815260040180806020018281038252601d8152602001807f54686572652073686f756c6420626520736f6d652062616c616e63652100000081525060200191505060405180910390fd5b610c603382610edb565b600660003373ffffffffffffffffffffffffffffffffffffffff1673ffffffffffffffffffffffffffffffffffffffff168152602001908152602001600020549050600160009054906101000a900473ffffffffffffffffffffffffffffffffffffffff1673ffffffffffffffffffffffffffffffffffffffff1663a9059cbb33836040518363ffffffff1660e01b8152600401808373ffffffffffffffffffffffffffffffffffffffff16815260200182815260200192505050602060405180830381600087803b158015610d3557600080fd5b505af1158015610d49573d6000803e3d6000fd5b505050506040513d6020811015610d5f57600080fd5b8101908080519060200190929190505050506000600660003373ffffffffffffffffffffffffffffffffffffffff1673ffffffffffffffffffffffffffffffffffffffff168152602001908152602001600020819055506000600760003373ffffffffffffffffffffffffffffffffffffffff1673ffffffffffffffffffffffffffffffffffffffff168152602001908152602001600020819055506000600960003373ffffffffffffffffffffffffffffffffffffffff1673ffffffffffffffffffffffffffffffffffffffff16815260200190815260200160002060006101000a81548160ff02191690831515021790555050565b60086020528060005260406000206000915054906101000a900460ff1681565b600160009054906101000a900473ffffffffffffffffffffffffffffffffffffffff1681565b600a8181548110610eac57600080fd5b906000526020600020016000915054906101000a900473ffffffffffffffffffffffffffffffffffffffff1681565b6000600254600760008573ffffffffffffffffffffffffffffffffffffffff1673ffffffffffffffffffffffffffffffffffffffff16815260200190815260200160002054420381610f2957fe5b0490506000610f3883836105d7565b9050600160009054906101000a900473ffffffffffffffffffffffffffffffffffffffff1673ffffffffffffffffffffffffffffffffffffffff166340c10f1930836040518363ffffffff1660e01b8152600401808373ffffffffffffffffffffffffffffffffffffffff16815260200182815260200192505050600060405180830381600087803b158015610fcd57600080fd5b505af1158015610fe1573d6000803e3d6000fd5b5050505080600660008673ffffffffffffffffffffffffffffffffffffffff1673ffffffffffffffffffffffffffffffffffffffff168152602001908152602001600020600082825401925050819055505050505056fe596f752063616e206f6e6c79207374616b6520616674657220796f7520756e7374616b65207468652063757272656e742076616c756521596f752063616e277420756e7374616b6520746865204d445420546f6b656e7320666f722061206d696e696d756d206f662031206d696e7574657321596f7520617265206e6f74207374616b696e6720616e797468696e672063757272656e746c7921a2646970667358221220168186c81af7441986cedec8a85174277ec0cbe63e63fd8c6aca1f3dda557b9f64736f6c63430007060033",
  "immutableReferences": {},
  "source": "// SPDX-License-Identifier: MIT\r\n\r\n\r\npragma solidity >=0.4.22 <0.9.0;\r\n\r\n//Imported MDT Token from contracts\r\nimport \"./MDT_Token.sol\";\r\n\r\n/* @author: The StakePool contract locks the coins for staking, such that an address can stake the coin once only.\r\n\t\t\tThe effective interest rate = 0.41% which is compounded monthly. The Annual Percentage Yeild can be \r\n\t\t\texpected of approx 5.03%.  \r\n*/\r\ncontract StakePool{\r\n\r\n\t// @dev : Stake Pool System\r\n\tstring public name = \"Stake Pool System\";\r\n\r\n\tMdtToken public mdtToken; //Initialized MdtToken contract\r\n\r\n\tuint reward_period = 1 minutes; // reward period is 30 days\r\n\tuint decimals = 4;\r\n\tuint interest_rate = 41;\r\n\r\n\taddress public owner = msg.sender;\r\n\r\n\tmapping (address => uint) public stakingBalance; // stores staking balance for address\r\n\tmapping (address => uint) public stakeTime; // stores staking time for the instant staking starts\r\n\tmapping (address => bool) public hasStaked; \r\n\tmapping (address => bool) public isStaking;\r\n\r\n\taddress[] public stakers; // address array of stakers\r\n\r\n\tconstructor(MdtToken _mdtToken) public{\r\n\r\n\t\tmdtToken = _mdtToken;\r\n\r\n\t}\r\n\r\n\tfunction getBal(address _caller) public view returns(uint256) {\r\n\t    \r\n\t   return mdtToken.balanceOf(_caller);\r\n\t    \r\n\t}\r\n\r\n\tfunction stakeTokens(uint _amount) public {\r\n\r\n\t\trequire (_amount > 0 , 'Amount cannot be 0!');\r\n\r\n\t\trequire (!isStaking[msg.sender], 'You can only stake after you unstake the current value!');\r\n\t\t\r\n  \t\r\n  \t\t// Transfer MDT Tokens to this contract for staking\r\n\t\tmdtToken.transferFrom(msg.sender, address(this), _amount) ;\r\n\r\n  \t\t// Update staking balance and staking time\r\n\t\tstakingBalance[msg.sender] += _amount;\r\n\t\tstakeTime[msg.sender] = block.timestamp;\r\n\r\n\r\n  \t\t// Add stakers to the stakers array *ONLY* if they haven't staked already\r\n  \t\tif (!hasStaked[msg.sender]) {\r\n  \t\t\tstakers.push(msg.sender);\r\n  \t\t}\r\n\r\n  \t\thasStaked[msg.sender] = true;\r\n  \t\tisStaking[msg.sender] = true;\r\n  \r\n\t}\r\n\t\r\n\r\n\tfunction mintRewards(address _staker, uint _balance) private {\r\n\r\n\t\t\r\n\t\tuint reward_time = uint((block.timestamp - stakeTime[_staker])/reward_period);\r\n\r\n\t\tuint reward_tokens = calculateRewards(_balance, reward_time);\r\n\t\tmdtToken.mint(address(this), reward_tokens);\r\n\r\n\t\tstakingBalance[_staker] += reward_tokens;\r\n\r\n\t}\r\n\r\n\tfunction calculateRewards(uint _balance, uint _rewardTime) public view returns(uint){\r\n\t    \r\n\t    uint amt=_balance;\r\n\t    \r\n\t    for(uint i=0; i<_rewardTime ; i++){\r\n\t        amt = (amt*10041)/10000;\r\n\t    }\r\n\t\t\r\n\t\tuint _reward = amt - _balance;\r\n\t\treturn _reward;\r\n\t}\r\n\t\r\n\tfunction unstakeTokens() public{\r\n\t\trequire(isStaking[msg.sender], \"You are not staking anything currently!\");\r\n\t\trequire(block.timestamp > stakeTime[msg.sender] + reward_period , \"You can't unstake the MDT Tokens for a minimum of 1 minutes!\");\r\n\r\n\t\tuint balance = stakingBalance[msg.sender];\r\n  \t\t\r\n  \t\trequire (balance > 0, 'There should be some balance!');\r\n\r\n  \t\tmintRewards(msg.sender,balance);\r\n  \t\tbalance = stakingBalance[msg.sender];\r\n  \t\tmdtToken.transfer( msg.sender, balance);\r\n\r\n\t  \tstakingBalance[msg.sender] =0;\r\n\t  \tstakeTime[msg.sender]= 0;\r\n\t  \tisStaking[msg.sender] = false;\r\n\t}\r\n\r\n\r\n}",
  "sourcePath": "D:/PROJECTS/Blockchain/Stake-DeFi System/contracts/Stake_Pool.sol",
  "compiler": {
    "name": "solc",
    "version": "0.7.6+commit.7338295f.Emscripten.clang"
  },
  "schemaVersion": "3.3.3",
  "updatedAt": "2021-02-04T11:56:33.238Z",
  "networkType": "ethereum",
  "devdoc": {
    "kind": "dev",
    "methods": {},
    "version": 1
  },
  "userdoc": {
    "kind": "user",
    "methods": {},
    "version": 1
  }
}